{
  "contractName": "Ownable",
  "abi": [
    {
      "inputs": [],
      "stateMutability": "nonpayable",
      "type": "constructor"
    },
    {
      "inputs": [],
      "name": "isOwner",
      "outputs": [
        {
          "internalType": "bool",
          "name": "",
          "type": "bool"
        }
      ],
      "stateMutability": "view",
      "type": "function"
    }
  ],
  "bytecode": "0x6080604052348015600f57600080fd5b50336000806101000a81548173ffffffffffffffffffffffffffffffffffffffff021916908373ffffffffffffffffffffffffffffffffffffffff16021790555060da8061005e6000396000f3fe6080604052348015600f57600080fd5b506004361060285760003560e01c80638f32d59b14602d575b600080fd5b6033604d565b604051808215151515815260200191505060405180910390f35b60008060009054906101000a900473ffffffffffffffffffffffffffffffffffffffff1673ffffffffffffffffffffffffffffffffffffffff163373ffffffffffffffffffffffffffffffffffffffff161490509056fea26469706673582212209e0ffb83c1720c19cdb4cbd1fe1bbfe6c660db4f81913bd3d77a4e0a2d03ba3464736f6c63430006040033",
  "source": "pragma solidity ^0.6.0;\r\n\r\n\r\n\r\ncontract Ownable{\r\n    \r\n    address payable _owner;\r\n    \r\n    constructor() public {\r\n        \r\n        _owner = msg.sender;\r\n        \r\n    }\r\n    \r\n    modifier onlyOwner(){\r\n        \r\n        require(isOwner(),\" YOU ARENT THE OWNER\");\r\n        _;\r\n        \r\n    }\r\n    \r\n    \r\n    function isOwner() public view returns(bool){\r\n        \r\n        return(msg.sender == _owner);\r\n        \r\n    }\r\n    \r\n}\r\n",
  "sourcePath": "C:/Users/VAMSHI/newForTruffle/contracts/Ownable.sol",
  "compiler": {
    "name": "solc",
    "version": "0.6.4+commit.1dca32f3.Emscripten.clang"
  },
  "schemaVersion": "3.4.1",
  "updatedAt": "2021-07-16T19:31:36.032Z",
  "devdoc": {
    "methods": {}
  },
  "userdoc": {
    "methods": {}
  }
}